:020000020000FC
:020000002AC014
:10000800AAC04142434445464748494A4B4C4D4E95
:100018004F505152535455565758595A13151700A3
:1000280020414E56154E44202056414C4241522004
:10003800475241545449532144552053554745523A
:1000480020524954415221200103020604050FEFB2
:100058000A95F1F704E00EBF0FE50DBFB6D022D028
:1000680045D0FECF0F931F93D0E0C0E6C20F0881A2
:10007800003031F4909A9198929AF0E0E0E305C04C
:100088009098919A929AF0E0E8E206E0E00F27E073
:1000980007E0149114D0EA950A952A95D1F71F9193
:1000A8000F9108950F931F932F9300E020917D00E7
:1000B80014D005D0D7DF2F911F910F9108950F937A
:1000C80036E1387F032B08BB7AD0AF9878D01BBBBA
:1000D80076D0AF9A74D00F910895FF93EF93F0E024
:1000E800EAE0E20F1491EF91FF910895879B03C016
:1000F800869901C006D0869B03C0879901C016D097
:10010800089520917D000FEF0A95F1F787990DC0AA
:1001180023952D3109F420E08699FECF879BFECFE9
:10012800869BFCCF20937D00BDDF089520917D0044
:100138000FEF0A95F1F786990DC02A952F3F09F41C
:100148002CE18799FECF869BFECF879BFCCF20931F
:100158007D00A8DF08950F931F932F938F939F938C
:10016800DF93CF93FF93EF936AD0F894F0E0E8E43D
:1001780007E0E00F28E01491A2DFEA950A952A9596
:10018800D1F710B3187F14601F9304E7029502BBE0
:1001980061D0FCCF1F9112BB20917D00D0E0C0E65A
:1001A800C20F01E008837EDF7894EF91FF91CF9131
:1001B800DF919F918F911F912F910F9118950F9318
:1001C8000FEF0A95F1F70F91089525E022BBA89A41
:1001D800A99AF5DF0FEF0ABB07EB07BB03E804BBDF
:1001E80007E301BBAF9A959A00E0D0E0C0E610E0C3
:1001F800099313951E31E1F708E805BF00E80BBF26
:1002080078940895F894F0E0E8E30FD0F0E0E0E5A2
:1002180011270591053009F4E65002BB8FEF94E0F1
:10022800CEDF0197E9F7F5CF089507E0E00F28E062
:10023800149145DFEA950A952A95D1F70895F8941F
:10024800F0E0E0E4F2DF112706E7029502BB02D0F6
:10025800FCCF08958F939F938FEF9AE0B0DF0197BB
:08026800E9F79F918F910895C1
:00000001FF
