:020000020000FC
:020000002EC010
:10000800BEC04142434445464748494A4B4C4D4E81
:100018004F505152535455565758595A13151700A3
:1000280020414E56154E44202056414C4241522004
:10003800475241545449532144552053554745523A
:1000480020524954415221202053544152542120D6
:1000580001030206040504E00EBF0FE50DBF20D121
:1000680003D02ED05BD0FECFF0E0E0E544D007E52A
:1000780000937F0005D110917E001030D9F30895C8
:100088000F931F93D0E0C0E6C20F0881003031F40F
:10009800909A9198929AF0E0E0E305C09098919A2E
:1000A800929AF0E0E8E206E0E00F27E007E014911A
:1000B80014D0EA950A952A95D1F71F910F910895C2
:1000C8000F931F932F9300E020917D001ED005D041
:1000D800D7DF2F911F910F9108953F9336E1387F15
:1000E800032B08BB9FD01BBB9DD0AF989BD0AF9A6A
:1000F80099D03F91089507E0E00F28E01491EDDFD3
:10010800EA950A952A95D1F70895FF93EF93F0E0C1
:10011800EAE0E20F1491EF91FF910895879B03C0E5
:10012800869901C006D0869B03C0879901C014D068
:10013800089520917D0076D087990DC023952D31A3
:1001480009F420E08699FECF879BFECF869BFCCFE3
:1001580020937D00B5DF089520917D0063D08699B6
:100168000DC02A952F3F09F42CE18799FECF869B75
:10017800FECF879BFCCF20937D00A2DF08950F93CD
:100188001F932F938F939F93DF93CF93FF93EF93B7
:100198000FB70F9300917E00003029F40395009368
:1001A8007E0028D011C000917D00D0E0C0E6C00FCD
:1001B8000881003049F41ED020917D00D0E0C0E6CF
:1001C800C20F01E008837CDF00E22CD00A95E9F732
:1001D8000AB70078003811F400E80ABF0F910FBF82
:1001E800EF91FF91CF91DF919F918F912F911F9167
:1001F8000F911895F0E0E8E407E0E00F28E014918B
:100208006CDFEA950A952A95D1F7187F146007E400
:1002180000937F0035D00895C4980FB9779BFECF1F
:10022800C49A08950F930FEF0A95F1F70F91089567
:100238008F939F938FEF9EE0F5DF0197E9F79F91EA
:100248008F910895F894F0E0E8E355DFF0E0E8E5F1
:1002580011270591053009F4E65002BB8FEF94E0B1
:10026800E1DF0197E9F7F5CF0895F894F0E0E0E4CD
:1002780042DF112706E700937F0002D0FECF0895E2
:100288000F931F9310B300917F00029500937F0096
:10029800187F0770012B02BBCBDF1F910F910895C8
:1002A80025E022BBA89AA99AAF9A959ABBDF0FEFCF
:1002B8000ABB07EB07BB03E804BB07E301BB00E08D
:1002C800D0E0C0E610E0099313951032E1F701E59C
:0E02D8000DB908E805BF00E80BBF7894089543
:00000001FF
