:020000020000FC
:020000002EC010
:10000800D8C04142434445464748494A4B4C4D4E67
:100018004F505152535455565758595A13151700A3
:1000280020414E56154E44202056414C4241522004
:10003800475241545449532144552053554745523A
:1000480020524954415221202053544152542120D6
:1000580001030206040504E00EBF0FE50DBF2AD117
:1000680009D036D063D07AD000918000003009F0F2
:10007800AAD0F8CFF0E0E0E546D007E500937F008E
:1000880009D1109180001030D9F3BED0AFD00895B7
:100098000F931F93D0E0C0E6C20F0881003031F4FF
:1000A800909A9198929AF0E0E0E305C09098919A1E
:1000B800929AF0E0E8E206E0E00F27E007E014910A
:1000C80014D0EA950A952A95D1F71F910F910895B2
:1000D8000F931F932F9300E020917D001ED005D031
:1000E800D7DF2F911F910F9108953F9336E1387F05
:1000F800032B08BBA1D01BBB9FD0AF989DD0AF9A54
:100108009BD03F91089507E0E00F28E01491EDDFC0
:10011800EA950A952A95D1F70895FF93EF93F0E0B1
:10012800EAE0E20F1491EF91FF910895879B03C0D5
:10013800869901C006D0869B03C0879901C018D054
:1001480008957AD0879909C08699FECF879BFECFFC
:10015800869BFCCF01E00093810008950091810007
:1001680000FD1DD001FD11D000E00093810008952D
:1001780063D0869909C08799FECF869BFECF879B5F
:10018800FCCF02E000938100089520917D002A951C
:100198002F3F09F42CE120937D009ADF08952091E8
:1001A8007D0023952D3109F420E020937D0090DF18
:1001B80008950F930FB70F9301E0009380000F91FC
:1001C8000FBF0F91189500917D00D0E0C0E6C00FD9
:1001D8000881003049F418D020917D00D0E0C0E6B5
:1001E800C20F01E0088374DF01D0089500E224D033
:1001F8000A95E9F70AB70078003811F400E80ABF51
:1002080000E0009380000895F0E0E8E407E0E00FE4
:1002180028E014916ADFEA950A952A95D1F7187FA4
:10022800146007E400937F0035D00895C4980FB98F
:10023800779BFECFC49A08950F930FEF0A95F1F7B5
:100248000F9108958F939F938FEF9EE0F5DF0197AD
:10025800E9F79F918F910895F894F0E0E8E353DF70
:10026800F0E0E8E511270591053009F4E65002BBF6
:100278008FEF94E0E1DF0197E9F7F5CF0895F8945F
:10028800F0E0E0E440DF112706E700937F0002D0AA
:10029800FECF08950F931F9310B300917F0002952E
:1002A80000937F00187F0770012B02BBCBDF1F91E3
:1002B8000F91089525E022BBA89AA99AAF9A959A1A
:1002C800BBDF0FEF0ABB07EB07BB03E804BB07E381
:1002D80001BB00E0D0E0C0E610E0099313951232AC
:1002E800E1F701E50DB908E805BF00E80BBF789410
:0202F800089567
:00000001FF
