:020000020000FC
:0200000004C03A
:100008002EC004E00EBF0FE50DBF33D023E0879B61
:1000180003C0869901C007D0869B03C0879901C099
:1000280010D022BBF4CF0FEF0A95F1F7879908C0DB
:10003800239527708699FECF879BFECF869BFCCFA2
:1000480008950FEF0A95F1F7869908C02A95277049
:100058008799FECF869BFECF879BFCCF089500E053
:1000680002BB0FEF1FEF1A95F1F70A95D9F702BBFC
:1000780018950FEF0ABB07EB07BB03E824BB07E3A0
:1000880001BB07E002BB08E805BF00E80BBF789496
:020098000895C9
:00000001FF
