:020000020000FC
:0200000004C03A
:1000080042C00FEF0A95F1F704E00EBF0FE50DBFF0
:100018004AD023E010D001D0FDCFA89AA99A002792
:1000280008BB3BD0AF9839D008E50BBB36D0AF9AA8
:1000380034D033D00895879B03C0869901C007D078
:10004800869B03C0879901C010D022BB08950FEF8B
:100058000A95F1F7879908C0239527708699FECFEE
:10006800879BFECF869BFCCF08950FEF0A95F1F78B
:10007800869908C02A9527708799FECF869BFECF60
:10008800879BFCCF089500E002BB0FEF1FEF1A9586
:10009800F1F70A95D9F702BB18950F930FEF0A9558
:1000A800F1F70F910895AF9A959AF7DF0FEF0ABB12
:1000B80007EB07BB03E824BB07E301BB08E805BF60
:0800C80000E80BBF78940895D5
:00000001FF
