:020000020000FC
:020000002EC010
:10000800C9C04142434445464748494A4B4C4D4E76
:100018004F505152535455565758595A13151700A3
:1000280020414E56154E44202056414C4241522004
:10003800475241545449532144552053554745523A
:1000480020524954415221202053544152542120D6
:100058000103020604050FEF0A95F1F704E00EBF4D
:100068000FE50DBF1CD103D032D05FD0FECFF0E03A
:10007800E0E548D000B30F9307E5E9D0029502BB4D
:1000880010917E001030C9F30F9102BB08950F93B1
:100098001F93D0E0C0E6C20F0881003031F4909A77
:1000A8009198929AF0E0E0E305C09098919A929A1C
:1000B800F0E0E8E206E0E00F27E007E0149114D052
:1000C800EA950A952A95D1F71F910F9108950F93F4
:1000D8001F932F9300E020917D001ED005D0D7DF1D
:1000E8002F911F910F9108953F9336E1387F032B8D
:1000F80008BBA7D01BBBA5D0AF98A3D0AF9AA1D0FF
:100108003F91089507E0E00F28E01491EDDFEA95AC
:100118000A952A95D1F70895FF93EF93F0E0EAE066
:10012800E20F1491EF91FF910895879B03C0869980
:1001380001C006D0869B03C0879901C016D00895D8
:1001480020917D000FEF0A95F1F787990DC023954F
:100158002D3109F420E08699FECF879BFECF869B40
:10016800FCCF20937D00B3DF089520917D000FEF31
:100178000A95F1F786990DC02A952F3F09F42CE1CD
:100188008799FECF869BFECF879BFCCF20937D006F
:100198009EDF08950F931F932F938F939F93DF9361
:1001A800CF93FF93EF930FB70F9300917E0000302A
:1001B80029F4039500937E0044D025C000917D006A
:1001C800D0E0C0E6C00F08810030E9F4F0E0E8E4D0
:1001D80007E0E00F28E0149187DFEA950A952A9551
:1001E800D1F710B3187F14601F9307E4029502BB80
:1001F8002ED01F9112BB20917D00D0E0C0E6C20F27
:1002080001E0088364DF9399FECF00E21AD00A95D3
:10021800E9F70AB70078003811F400E80ABF0F912F
:100228000FBFEF91FF91CF91DF919F918F912F9108
:100238001F910F911895C4980FB9779BFECFC49A58
:1002480008950F930FEF0A95F1F70F9108958F9383
:100258009F938FEF9EE0F5DF0197E9F79F918F91CC
:100268000895F894F0E0E8E34DDFF0E0E8E51127C1
:100278000591053009F4E65002BB8FEF94E0E1DF09
:100288000197E9F7F5CF0895F894F0E0E0E43ADF54
:10029800112706E7029502BBDADFFCCF089525E0B7
:1002A80022BBA89AA99AAF9A959ACBDF0FEF0ABBFF
:1002B80007EB07BB03E804BB07E301BB00E0D0E0A2
:1002C800C0E610E0099313951F31E1F701E50DB978
:0C02D80008E805BF00E80BBF789408950B
:00000001FF
