:020000020000FC
:0200000046C0F8
:100008001FC14142434445464748494A4B4C4D4E1F
:100018004F505152535455565758595A13151700A3
:1000280020414E56154E44202056414C4241522004
:10003800475241545449532144552053554745523A
:100048002020521554542020202046454C212020A1
:1000580020524954415221202053544152542120C6
:1000680020204C1554542020204E4F524D414C20F6
:100078002020535613522020204E4956133F20204B
:1000880001030206040504E00EBF0FE50DBF87D18A
:100098007ED10AD018D06BD090D0B4D00091800017
:1000A800003009F0D7D0F8CFF0E0E0E673D007E5EC
:1000B80000937F005AD1109180001030D9F300E8E6
:1000C800EAD0DBD00895909A919A9298F0E0E0E80F
:1000D80061D08FEF90E415D1F0E0E0E75BD001E06C
:1000E800009383006AD000918100003009F006D0A7
:1000F8000091800000FFF6CFC0D0089510918300D2
:10010800013011F411FF1395023019F41A9517FDF7
:1001180010E010938300F0E0E8E6103019F038960C
:100128001A95FBCF37D000E00093810008950F9314
:100138001F93D0E0C0E6C20F0881003031F4909AD6
:100148009198929AF0E0E0E305C09098919A929A7B
:10015800F0E0E8E206E0E00F27E007E014910ED0B7
:10016800EA950A952A95D1F71F910F91089500E015
:1001780020917D0019D002D0DADF089536E1387F6A
:10018800032B08BBB8D01BBBB6D0AF98B4D0AF9A7E
:10019800B2D0089507E0E00F28E01491EFDFEA9568
:1001A8000A952A95D1F70895FF93EF93F0E0EAE0D6
:1001B800E20F1491EF91FF910895879B03C08699F0
:1001C80001C006D0869B03C0879901C00ED0089550
:1001D80092D0879909C08699FECF879BFECF869BD0
:1001E800FCCF01E000938100089585D0869909C06D
:1001F8008799FECF869BFECF879BFCCF02E00093BA
:10020800810008950091810000FD10D001FD04D007
:1002180000E000938100089520917D002A952F3FEA
:1002280009F42CE120937D00A2DF089520917D0040
:1002380023952D3109F420E020937D0098DF08955F
:100248000F930FB70F9301E0009380000F910FBF3A
:100258000F91189500917D00D0E0C0E6C00F08818D
:10026800003049F418D020917D00D0E0C0E6C20FDC
:1002780001E008837CDF01D0089500E23CD00A95B4
:10028800E9F70AB7007807FD02C000E80ABF00E0F6
:1002980000938000089518D0F0E0E8E507E0E00F4B
:1002A80028E014916BDFEA950A952A95D1F7187F13
:1002B800146007E400937F0058D000E005D0009157
:1002C800820000300AD00895C4980FB9779BFECFFA
:1002D800C49A0FB10093820008950091820000FD36
:1002E80014D001FD1CD002FD24D003FD33D000E062
:1002F8000093820008950F930FEF0A95F1F70F917D
:100308000895F9DF0197E9F70895909A9198929ADC
:10031800F0E0E8E43FDF8FEF90E4F3DF0895909892
:10032800919A929AF0E0E0E535DF8FEF90E4E9DF0B
:100338000895F894F0E0E8E32DDFF0E0E8E811270D
:100348000591053009F4E65002BB8FEF94E0D9DF40
:10035800F7CF0895F894F0E0E0E41CDF112706E7F2
:1003680000937F0002D0FECF08950F931F9310B320
:1003780000917F00029500937F00187F0770012B82
:1003880002BB8FEF9EE0BDDF1F910F91089500E043
:10039800D0E0C0E613E209931A95E9F7089525E03D
:1003A80022BBA89AA99AAF9A959AA5DF0FEF0ABB24
:1003B80007EB07BB03E804BB07E301BB01E50DB985
:0C03C80008E805BF00E80BBF789408951A
:00000001FF
