:020000020000FC
:0200000020C01E
:10000800A2C04142434445464748494A4B4C4D4E9D
:100018004F505152535455565758595A13151700A3
:10002800414E56154E4456414C4241524752415456
:10003800544953210103020604050FEF0A95F1F70D
:1000480004E00EBF0FE50DBF95D020E003D0AFD080
:1000580045D0FDCF0F931F932F9300E020917D0093
:1000680034D025D004D02F911F910F9108950F936C
:100078001F93D0E0C0E6C20F0881003031F4909A97
:100088009198929AF0E0EEE205C09098919A929A2F
:10009800F0E0E8E205E0E00F26E007E0149107D081
:1000A800EA950A952A95D1F71F910F9108950F9314
:1000B80036E1387F032B08BB57D0AF9855D01BBB10
:1000C80053D0AF9A51D00F910895FF93EF93F0E07A
:1000D800EAE0E20F1491EF91FF910895879B03C026
:1000E800869901C006D0869B03C0879901C016D0A7
:1000F800089520917D000FEF0A95F1F787990DC0BB
:1001080023952D3109F420E08699FECF879BFECFF9
:10011800869BFCCF20937D009DDF089520917D0074
:100128000FEF0A95F1F786990DC02A952F3F09F42C
:100138002CE18799FECF869BFECF879BFCCF20932F
:100148007D0088DF08950F932F93DF93CF9320913D
:100158007D00D0E0C0E6C20F01E008837BDFCF91CD
:10016800DF912F910F9118950F930FEF0A95F1F7E3
:100178000F91089525E022BBA89AA99AF5DF0FEF01
:100188000ABB07EB07BB03E804BB07E301BBAF9A55
:10019800959A00E0D0E0C0E610E0099313951E316F
:1001A800E1F708E805BF00E80BBF78940895F0E090
:1001B800E4E307E0E00F28E0149179DFEA950A9577
:1001C8002A95D1F7F0E0ECE311270591053009F401
:1001D800E65002BB1FEFC8DF1A95E9F7F6CF08957E
:00000001FF
