:020000020000FC
:0200000013C02B
:1000080068C04142434445464748494A4B4C4D4ED7
:100018004F505152535455565758595A13151700A3
:100028000FEF0A95F1F704E00EBF0FE50DBF6DD095
:1000380020E002D019D0FECF0F931F932F9300E03A
:1000480020917D0004D02F911F910F91089516E102
:10005800187F012B08BB4ED0AF984CD051D01BBB9A
:1000680049D0AF9A47D00895879B03C0869901C0AD
:1000780006D0869B03C0879901C016D008952091A9
:100088007D000FEF0A95F1F787990DC023952D3163
:1000980009F420E08699FECF879BFECF869BFCCF94
:1000A80020937D00C9DF089520917D000FEF0A9508
:1000B800F1F786990DC02A952F3F09F42CE187990D
:1000C800FECF869BFECF879BFCCF20937D00B4DFBD
:1000D80008950F931F939098919892980FEF1FEFA0
:1000E8001A95F1F70A95D9F7909A9198929A1F91D3
:1000F8000F9118950F930FEF0A95F1F70F91089547
:10010800F0E0EAE0E20F1491089525E022BBA89AF6
:10011800A99AF0DF0FEF0ABB07EB07BB03E804BBA4
:1001280007E301BBAF9A959A00E0D0E0C0E610E083
:10013800099313951E31E1F708E805BF00E80BBFE6
:04014800789408950A
:00000001FF
