:020000020000FC
:020000002EC010
:10000800C6C04142434445464748494A4B4C4D4E79
:100018004F505152535455565758595A13151700A3
:1000280020414E56154E44202056414C4241522004
:10003800475241545449532144552053554745523A
:1000480020524954415221202053544152542120D6
:100058000103020604050FEF0A95F1F704E00EBF4D
:100068000FE50DBF0BD103D02FD05CD0FECFF0E051
:10007800E0E545D09098919A9298D8D011271091A0
:100088007E001030D1F308950F931F93D0E0C0E69F
:10009800C20F0881003031F4909A9198929AF0E05A
:1000A800E0E305C09098919A929AF0E0E8E206E0C1
:1000B800E00F27E007E0149114D0EA950A952A95F5
:1000C800D1F71F910F9108950F931F932F9300E07D
:1000D80020917D001ED005D0D7DF2F911F910F9161
:1000E80008953F9336E1387F032B08BB99D01BBB9B
:1000F80097D0AF9895D0AF9A93D03F91089507E0E5
:10010800E00F28E01491EDDFEA950A952A95D1F7DA
:100118000895FF93EF93F0E0EAE0E20F1491EF9176
:10012800FF910895879B03C0869901C006D0869BDE
:1001380003C0879901C016D0089520917D000FEF64
:100148000A95F1F787990DC023952D3109F420E020
:100158008699FECF879BFECF869BFCCF20937D00A0
:10016800B3DF089520917D000FEF0A95F1F7869986
:100178000DC02A952F3F09F42CE18799FECF869B65
:10018800FECF879BFCCF20937D009EDF0895F894D7
:100198000F931F932F938F939F93DF93CF93FF9387
:1001A800EF93002700917E00003021F4039500931F
:1001B8007E0025C000917D00D0E0C0E6C00F088118
:1001C8000030E9F4F0E0E8E407E0E00F28E01491FB
:1001D80088DFEA950A952A95D1F710B3187F14603D
:1001E8001F9307E4029502BB21D01F9112BB2091F7
:1001F8007D00D0E0C0E6C20F01E0088365DFEF9123
:10020800FF91CF91DF919F918F912F911F910F9126
:1002180078941895C4980FB9779BFECFC49A08951F
:100228000F930FEF0A95F1F70F9108958F939F930E
:100238008FEF9AE0F5DF0197E9F79F918F91089585
:10024800F894F0E0E8E35BDFF0E0E8E511270591DA
:10025800053009F4E65002BB8FEF94E0E1DF019727
:10026800E9F7F5CF0895F894F0E0E0E448DF1127C6
:1002780006E7029502BBDADFFCCF089525E022BB32
:10028800A89AA99AAF9A959ACBDF0FEF0ABB07EB0A
:1002980007BB03E804BB07E301BB00E0D0E0C0E60E
:1002A80010E0099313951F31E1F701E50DB908E84E
:0A02B80005BF00E80BBF789408951D
:00000001FF
