:020000020000FC
:100000000C94160510500105111551559040090426
:10001000999449448060080688866866A0200A0290
:10002000AAA22A2220A0020A222AA2AA60800608E6
:1000300066688688409004094449949950100501E7
:1000400055511511800E84028204860281068308B0
:1000500002088108FF008010820686028104870260
:100060008306020686028104870283060208FF00D7
:1000700000048008840482040110830485040208BB
:100080000104FF00801082068602810C870283062D
:100090000208FF008010820801068308010A820816
:1000A000FF008010820801068308010A0208FF0091
:1000B000000480088404820401108304850402087B
:1000C00001048008830402040108FF008010010875
:1000D0008208800801088108FF0002038201801065
:1000E000830102018201011083010204FF0000105C
:1000F0008208810E87028304850202080102FF0044
:100100008010020787088608FF000010811082080F
:10011000FF0080108201810282018102820181023E
:1001200082018102800282018002820180028201BA
:10013000800282018110FF00801082018102820111
:100140008102820181028201810282018102820197
:100150008102820181028201810280100110FF0070
:100160000002800C840282048602810C87028304D0
:10017000850201020208FF008010820686028104C7
:100180008702830602080108FF000002800C840237
:1001900082048602810C8702830485020102020820
:1001A00085040604FF00801082068602810487020F
:1001B00083068608FF000003860382028403800210
:1001C0008503830285038002840382028603010C77
:1001D000FF000204800F030482080304010F0204DD
:1001E000FF000010810D860382028403800D011040
:1001F000FF000010810482018104820181048201D8
:1002000081048202800482018004820180048201D0
:1002100080040110FF000010811080028201800222
:1002200082018002820180028202810282018102B7
:10023000820181028201810200108110FF0080048E
:10024000840880040308810486088104FF000204F6
:10025000800A85048002020881028704010A0204E0
:10026000FF008002820180028201800282018002FE
:10027000820180028201800282018002820180026A
:100280008201830801108208FF00800E840282012F
:1002900000028204800383048103020101028203BD
:1002A00086028106030882088108FF00800E84020E
:1002B0008201050203018202800283028102020799
:1002C0008202800283028102030401028204860208
:1002D0008106030882088108FF000002800C840266
:1002E000820105020301820280028302810202066A
:1002F00082028002830281020303010282038602DA
:10030000810C870283048502060202060101FF00B8
:1003100022002B00380042004A00510058006600BD
:100320006D0077008000850089009C00B000BC0053
:10033000C500D300DB00E900F100F9000B011F014B
:1003400027013101450156016D01FF008003820143
:100350008003820180038201800282018002820187
:10036000800282018001820180028201800182017B
:10037000800182018002820180018201800182016C
:10038000800182018001820180018201800182015D
:10039000800182018001820180018201800182014D
:1003A000800182018001820280018201800182023B
:1003B000800182018001820280018201800182022B
:1003C0008001820280018202800182028001820714
:1003D0008207810182028101820281018202810100
:1003E00082028101820181018202810182018101F7
:1003F00082028101820181018202810182018101E7
:1004000082018101820181018201810182018101D8
:1004100082018101820181018201810182018101C8
:1004200082018101820181018201810282018101B7
:1004300082018101820181028201810182018102A6
:100440008201810282018102820181038201810392
:1004500082018103035CFF00022E002C80340160C6
:10046000032EFF00022E002C00348224032401609E
:10047000032EFF00022E002C002A840A070A0156D0
:10048000032EFF00022E002C00340224810A0324D4
:100490000156032EFF00022E002C00340224010A14
:1004A0008202810182018101820181048301810133
:1004B0008301810183048001830180018301800322
:1004C00080018201800182018001820203240156A1
:1004D000032EFF00022E0060022401128110013E53
:1004E0000352FF000252003E87080136034AFF0014
:1004F0000252003E86080136035AFF0002520048AD
:1005000085080150034AFF00025200488408015048
:10051000035AFF00A6012C0232023A0242024B02A9
:100520006A02720278027E028402FF0002B4003C7A
:10053000FF0003B4013CFF00820A0206FF00031023
:10054000FF0002B5003EFF0003B5013EFF000210B0
:10055000FF000208FF000310FF0002B4FF0003B415
:10056000FF00020CFF000310FF000308FF001F93B1
:10057000000FE00F08F4FF5F05911491110F000FB9
:1005800008F41F5FF12FE02F1F910895FF93EF9361
:100590000F932F9305910F3F41F007FD24D007FFE4
:1005A00027D00F77259107D0F5CF22D02F910F912B
:1005B000EF91FF910895FF93EF931F933F93302F97
:1005C000032F18E0F0E0E4E0E00F04910BBB0E9481
:1005D0000603E85F1A95C9F72A9591F73F911F9195
:1005E000EF91FF910895AF9902C0AF9A06D0089598
:1005F000AF9B02C0AF9801D008958F939F939FEF58
:100600008FEF0197F1F79F918F9108958F939F93AB
:100610009AE080E00197F1F79F918F910895150876
:10062000120F06111B030304FF00000B0500010459
:10063000130413FF0D0013080E0D000B040D021818
:100640000A0B0E0F0403080DFF00031B0606030927
:100650001411FF000E1103051C11111A03FF0714DA
:1006600015140312130003FF031C11110C001313C4
:1006700000FF000F00FF120A08030E11FF00121303
:100680001B0B0B051C110413111B03001104FF00AD
:10069000040513041113000D0A04FF000C040303E6
:1006A000040B00FF0308000B040A13FF12130013CE
:1006B0000815FF0013000D0A120F11080303FF00B5
:1006C0000F110403080A00FF040D050E110C0806A3
:1006D000FF000611000D0013FF00091B0D0A001199
:1006E00004FF0A0E0D03040D1200130E11FF1C155A
:1006F0000411131806040B1204FF040D150812FF51
:1007000000131308131803FF080C0C140D051C111B
:1007100012150011FF0005080B0E120E05FF010057
:10072000120A0411FF00010403110006001104FF66
:1007300000150B1B06120D00FF0012150006FF002E
:10074000150011080013080E0DFF000D150812000A
:10075000FF001308060411FF0F0315031A032503F6
:100760002A032F03340339033B033F0348034E039B
:10077000520356035A036003640369036D03710354
:1007800077037D03800384038B038F039303980314
:100790009D03A003A503A9031813120F1B0D0D0839
:1007A0000D06FF00121300020AFF0F040A001104D5
:1007B000FF0000130C040BFF0B000C0F00FF0118CF
:1007C000170E11FF1104180A0015080AFF000F0E7A
:1007D00012130B1A0300FF001104180A0900150870
:1007E0000AFF051C1113000BFF000A0E0D140D0665
:1007F00000031C0C0413FF000C0403040B0B1B0D63
:100800000603FF000014130E06110005FF000A1472
:100810000D120A000FFF12180D121B1313FF111BEC
:100820001313150812FF111A0305111A0600FF0011
:10083000050E0D0E0B0E0608FF00111B03120B0018
:10084000FF000E0D1C030806FF00001515080A0026
:100850000D0304FF12180D0D041115FF010B1806EE
:1008600012000CFF0E01080B030003FF0F0E111303
:10087000080E0D041100FF00140F0F0C140D1311BE
:1008800000FF0C0E11000B0812041100FF000E0AED
:10089000140B0011FF000E000A1312000CFF0514C8
:1008A0000C0B0806FF000C0014120E0B04140CFFB6
:1008B000051C1107000D03FFCC03D203D503D90398
:1008C000DC03DF03E203E703EC03F103F503FC03BE
:1008D000020407040B040F04130418041D0421046C
:1008E00025042A042E04320436043C04410447043F
:1008F0004B044F0453045804181700FF140A140B38
:10090000040B04FF1918060E13FF17180B0E050E23
:100910000DFF1800131918FF1A0BFF000E1704FF24
:10092000071B1213FF0013001708FF000C18120A10
:100930000E1704FF071B1700FF0012180D1A0BFFFC
:100940000A001213000D09041313FF0013080B0B08
:100950001300FF00010E06120F111C13FF000011FF
:100960000B00FF000C1A051AFF000A111B0B0309EC
:100970001411FF000500140D00FF121014001207DF
:10098000FF001600111219001600FF00000600FFFC
:100990000F1A0A04FF000F1108120F000B0BFF00C3
:1009A00012020700010B0E0DFF00070E11110801C6
:1009B000040BFF00060E11060E0D190E0B00FF00B2
:1009C000050E0D031404FF000F14110813000DFF92
:1009D000031401080411FF00010B0E1313FF0D088F
:1009E0001202070003FF7C047E048204850489044C
:1009F0008C048E049004930496049A049D04A0042D
:100A0000A604AA04AF04B204B504BA04BD04C10428
:100A1000C604C804CB04D004D504DA04E004E4041A
:100A2000E804EC04EF04AC035C04F30404E00EBF40
:100A30000FE50DBF0FEF0ABB00E804BB08E407BBDE
:100A400000E0009360000093610000936300009356
:100A500066000093670000E40DB9C39834D010938A
:100A6000640000916500009363000E947B05C398B9
:100A70002AD010E0C39827D063D00DD024D0F9CF6E
:100A80000C9440050F930091650003950F7100933E
:100A900065000F9108950F931F930BE01091600074
:100AA000011729F44DD008E00093670009C00091B8
:100AB000620010916600011719F404E000936700CA
:100AC0001F910F910895DEDFC39A109167001FB93F
:100AD000779BF9CF1FB1C39800E00093670008959A
:100AE0000F93FAE0E6E20091640041DD00916300BB
:100AF0003EDD0F910895FF93EF930F932F932227DD
:100B0000F5E0ECE243DDECDF05910F3F49F0FF93A8
:100B1000EF93F5E0E8E33ADDEF91FF912395F4CF11
:100B2000DFDF20936200022FF5E0EEE34FD001E01B
:100B3000F5E0E2E34BD02F910F91EF91FF910895F3
:100B40002F931F71109361002227FF93EF9302E010
:100B500000936700F5E0E2E419DDC2DF05910F3F85
:100B6000F1F0FF93EF93409160004B3019F4009344
:100B7000610002C0011769F455D02FEF00916600A3
:100B800003950093660001E000936700F5E0E2E55D
:100B900002C0F5E0EEE4FADCEF91FF91DFCFA0DFD9
:100BA00000916200F5E0E6E511D001E0F5E0E8E44F
:100BB000EDDC2F3F39F0F5E0E4E100916000D7DC97
:100BC000E5DC12D0EF91FF912F910895003059F09C
:100BD0001F932F931F2F2E2FF12FE22FD7DC0A9573
:100BE000D9F72F911F910895FF93EF93F5E0EAE570
:100BF000CDDCF5E0EEE400916000E8DF13D0F5E035
:100C0000EAE6C4DC00916000F5E0E6E6DFDFF5E04F
:100C1000EEE5BCDC00916000039500936000EF916D
:100C2000FF910895FF93EF930F93F3E0E0E10091BC
:0E0C300061009DDCABDC0F91FF91EF91089508
:00000001FF
